:020000040800F2
:100000000050002081060008B1050008B90500086D
:10001000C1050008C9050008D1050008000000005E
:10002000000000000000000000000000D9050008EA
:10003000E505000800000000F1050008FD050008C6
:10004000C9060008C9060008C9060008C906000854
:10005000C9060008C9060008C9060008C906000844
:10006000C9060008C9060008C9060008C906000834
:10007000C9060008C9060008C9060008C906000824
:10008000C9060008C9060008C9060008C906000814
:10009000C9060008C9060008C9060008C906000804
:1000A000C9060008C9060008C9060008C9060008F4
:1000B000C9060008C9060008C9060008C9060008E4
:1000C000C9060008C9060008C9060008C9060008D4
:1000D000C9060008C9060008C9060008C9060008C4
:1000E000C9060008C9060008C9060008000000008B
:1000F0000000000000000000000000000000000000
:0C01000000000000000000005FF808F1A3
:10010C0010B5054C237833B9044B13B10448AFF345
:10011C0000800123237010BD5C0000200000000053
:10012C00542F000808B5034B1BB103490348AFF328
:10013C00008008BD0000000060000020542F000863
:10014C00034613F8012B002AFBD1181A013870470B
:10015C0090B585B000AF00F0B3FA00F085F800F070
:10016C004BF900F0D1F800F01DF9354800F086FF8E
:10017C000346002B01D000F055F9324B3C460FCB17
:10018C0084E80F003B461846FFF7DAFF03469AB2A5
:10019C0039464FF0FF332C4802F052F8284800F053
:1001AC00EDFB4FF0FF31264800F0C2FC244800F074
:1001BC00C5FD0346254A13604FF0FF31204800F07F
:1001CC00B7FC1F4800F0BAFD0346214A13601C48D7
:1001DC0000F082FC1D4B1B68962203FB02F21D4BA8
:1001EC00A3FB0213D21A52081344DB0A1A4A1360F7
:1001FC00174B1B68642203FB02F2164BA3FB021382
:10020C00D21A52081344DB0A144A1360124B1A68B0
:10021C00124B1B681249134802F0E6F91148FFF71C
:10022C008FFF03469AB24FF0FF330E49064802F097
:10023C0007F84FF4FA7000F0A5FA00BFAEE700BF64
:10024C0078000020942F0008A8000020F000002067
:10025C00F400002001011000F8000020FC00002038
:10026C006C2F00080001002080B594B000AF07F19E
:10027C00280328220021184602F0D8F907F11403AC
:10028C0000221A605A609A60DA601A613B1D0022E3
:10029C001A605A609A60DA600223BB620123BB6366
:1002AC001023FB6300237B6407F12803184601F03D
:1002BC00FBF90346002B01D000F0B4F80F237B614F
:1002CC000023BB610023FB6100233B6200237B62A4
:1002DC0007F114030021184601F068FC0346002BBB
:1002EC0001D000F09FF802237B600023FB603B1DD4
:1002FC00184601F0E9FD0346002B01D000F092F8FE
:10030C0000BF5037BD4680BD80B584B000AF3B1DEB
:10031C0000221A605A609A60204B214A1A601F4BC7
:10032C004FF480729A601D4B00221A731B4B0022F3
:10033C001A751A4B4FF46022DA61184B00225A607E
:10034C00164B02221A61154800F040FA0346002BA6
:10035C0001D000F067F800237B600123BB6007230A
:10036C00FB603B1D19460D4800F0F4FC0346002BC6
:10037C0001D000F057F801237B600223BB603B1DCA
:10038C001946064800F0E6FC0346002B01D000F0AD
:10039C0049F800BF1037BD4680BD00BF7800002073
:1003AC000024014080B500AF114B124A1A60104B6B
:1003BC004FF416525A600E4B00229A600C4B0022DE
:1003CC00DA600B4B00221A61094B0C225A61084B64
:1003DC0000229A61064B0022DA61054801F0E0FE2A
:1003EC000346002B01D000F01DF800BF80BD00BFFC
:1003FC00A80000200038014080B483B000AF084B47
:10040C009B69074A43F004039361054B9B6903F016
:10041C0004037B607B6800BF0C37BD4680BC704713
:10042C000010024080B400AF72B600BF00BFFDE701
:10043C0080B485B000AF154B9B69144A43F001039F
:10044C009361124B9B6903F00103BB60BB680F4BBC
:10045C00DB690E4A43F08053D3610C4BDB6903F02C
:10046C0080537B607B680A4B5B68FB60FB6823F006
:10047C00E063FB60FB6843F00073FB60044AFB68BD
:10048C00536000BF1437BD4680BC7047001002405B
:10049C000000014080B588B000AF786007F1100310
:1004AC0000221A605A609A60DA607B681B68144AF2
:1004BC00934221D1134B9B69124A43F4007393610D
:1004CC00104B9B6903F40073FB60FB680D4B9B693D
:1004DC000C4A43F0040393610A4B9B6903F0040339
:1004EC00BB60BB6803233B6103237B6107F11003F3
:1004FC001946054800F054FF00BF2037BD4680BDAB
:10050C0000240140001002400008014080B588B072
:10051C0000AF786007F1100300221A605A609A60ED
:10052C00DA607B681B681C4A934231D11B4B9B6978
:10053C001A4A43F480439361184B9B6903F480433C
:10054C00FB60FB68154B9B69144A43F004039361F1
:10055C00124B9B6903F00403BB60BB684FF4007340
:10056C003B6102237B610323FB6107F110031946F6
:10057C000B4800F015FF4FF480633B6100237B6157
:10058C000023BB6107F110031946054800F008FF72
:10059C0000BF2037BD4680BD00380140001002402E
:1005AC000008014080B400AF00BFFDE780B400AF8D
:1005BC0000BFFDE780B400AF00BFFDE780B400AF23
:1005CC0000BFFDE780B400AF00BFFDE780B400AF13
:1005DC0000BFBD4680BC704780B400AF00BFBD46B5
:1005EC0080BC704780B400AF00BFBD4680BC704774
:1005FC0080B500AF00F0AAF800BF80BD80B586B012
:10060C0000AF7860144A154BD31A7B617B693B6150
:10061C00134B1B68002B02D1114B124A1A60104B62
:10062C001A687B6813443A699A4207D202F006F8BA
:10063C0003460C221A604FF0FF3309E0084B1B688D
:10064C00FB60074B1A687B681344054A1360FB6810
:10065C0018461837BD4680BD00500020000400002D
:10066C0064010020B802002080B400AF00BFBD467A
:10067C0080BC7047FFF7F8FF0B480C490C4A00236D
:10068C0002E0D458C4500433C4188C42F9D3094A3C
:10069C00094C002301E013600432A242FBD301F0A9
:1006AC00D3FFFFF755FD7047000000205C000020D1
:1006BC00283000085C000020B4020020FEE7000097
:1006CC0080B500AF084B1B68074A43F0100313605A
:1006DC00032000F031FE0F2000F008F8FFF7A8FE11
:1006EC000023184680BD00BF0020024080B582B0B8
:1006FC0000AF7860124B1A68124B1B7819464FF4F6
:10070C007A73B3FBF1F3B2FBF3F3184600F03BFE44
:10071C000346002B01D001230EE07B680F2B0AD877
:10072C00002279684FF0FF3000F011FE064A7B681A
:10073C001360002300E0012318460837BD4680BD36
:10074C0000000020080000200400002080B400AF4E
:10075C00054B1B781A46054B1B681344034A136060
:10076C0000BFBD4680BC7047080000206801002017
:10077C0080B400AF024B1B681846BD4680BC704766
:10078C006801002080B584B000AF7860FFF7F0FFFF
:10079C00B8607B68FB60FB68B3F1FF3F05D00A4B88
:1007AC001B781A46FB681344FB6000BFFFF7E0FFA1
:1007BC000246BB68D31AFA689A42F7D800BF00BF4A
:1007CC001037BD4680BD00BF0800002080B586B044
:1007DC0000AF78600023FB7500233B610023BB60F6
:1007EC000023FB607B68002B01D10123BEE07B68FA
:1007FC009B68002B7B689B6A002B09D17B680022CD
:10080C00DA627B68002283F824207868FFF742FEC6
:10081C00786800F0F1FB0346FB757B689B6A03F07C
:10082C001003002B40F09980FB7D002B40F095804D
:10083C007B689B6A23F4885323F0020343F0020283
:10084C007B689A627B685A687B68DB691A437B68B1
:10085C001B7B5B001343BA681343BB607B689B68CC
:10086C00B3F5807F03D07B689B68012B02D14FF4DA
:10087C00807300E000233A6913433B617B681B7D66
:10088C00012B19D17B681B7B002B09D17B689B69E1
:10089C00013B5A033B69134343F400633B610BE098
:1008AC007B689B6A43F020027B689A627B68DB6AF8
:1008BC0043F001027B68DA627B681B685B6823F497
:1008CC0069417B681B683A690A435A607B681B68FC
:1008DC009A68284B13407A681268B9680B43936086
:1008EC007B689B68B3F5807F03D07B689B68012B8A
:1008FC0004D17B681B69013B1B05FB607B681B6893
:10090C00DB6A23F470017B681B68FA680A43DA62BD
:10091C007B681B689A68184B1340BA689A420BD1D3
:10092C007B680022DA627B689B6A23F0030343F046
:10093C0001027B689A6218E07B689B6A23F01203C1
:10094C0043F010027B689A627B68DB6A43F0010219
:10095C007B68DA620123FB7507E07B689B6A43F0D6
:10096C0010027B689A620123FB75FB7D18461837D1
:10097C00BD4680BDFDF7E1FFFE0E1FFF80B584B0C4
:10098C0000AF78600023FB737B6893F82430012B55
:10099C0001D1022398E07B68012283F82420786837
:1009AC0000F0D0FA0346FB73FB7B002B40F08780F2
:1009BC007B689B6A23F4407323F0010343F4807239
:1009CC007B689A627B681B68414A934205D1414B14
:1009DC005B6803F47023002B15D17B689B6A23F4AE
:1009EC0080127B689A627B681B685B6803F4806387
:1009FC00002B26D07B689B6A23F4405343F480522F
:100A0C007B689A621DE07B689B6A43F480127B686A
:100A1C009A627B681B682F4A934204D07B681B68E0
:100A2C002B4A93420DD12B4B5B6803F48063002B54
:100A3C0007D07B689B6A23F4405343F480527B6855
:100A4C009A627B689B6A03F48053002B06D07B6808
:100A5C00DB6A23F006027B68DA6202E07B68002224
:100A6C00DA627B68002283F824207B681B686FF0B5
:100A7C0002021A607B681B689B6803F46023B3F561
:100A8C00602F13D17B681B68114A934205D1114B1F
:100A9C005B6803F47023002B08D17B681B689A6891
:100AAC007B681B6842F4A0029A600CE07B681B68B0
:100ABC009A687B681B6842F480129A6003E07B683A
:100ACC00002283F82420FB7B18461037BD4680BDDE
:100ADC00002801400024014080B584B000AF78604C
:100AEC000023FB737B6893F82430012B01D1022384
:100AFC001AE07B68012283F82420786800F07CFAE5
:100B0C000346FB73FB7B002B09D17B689B6A23F4A8
:100B1C00885323F0010343F001027B689A627B68DF
:100B2C00002283F82420FB7B18461037BD4680BD7D
:100B3C0090B587B000AF7860396000237B610023EB
:100B4C00FB6000233B61FFF713FE78617B681B6839
:100B5C009B6803F48073002B0BD07B689B6A43F07B
:100B6C0020027B689A627B68002283F82420012390
:100B7C00D3E07B681B685B6803F48073002B31D176
:100B8C007B681B68DB6A03F47003002B2AD121E01D
:100B9C003B68B3F1FF3F1DD03B68002B07D0FFF73C
:100BAC00E7FD02467B69D31A3A689A4212D27B68F7
:100BBC001B681B6803F00203002B0BD17B689B6A3C
:100BCC0043F004027B689A627B68002283F824203D
:100BDC000323A2E07B681B681B6803F00203002B55
:100BEC00D6D070E04F4B1C68022001F023FA03466C
:100BFC00B4FBF3F27B681B6819694B4B0B40002B61
:100C0C0018D17B681B68D968484B0B40002B11D15D
:100C1C007B681B681969464B0B40002B08D17B681D
:100C2C001B68D968434B0B40002B01D1142320E0E7
:100C3C0029231EE07B681B6819693D4B0B40002B78
:100C4C0006D17B681B68D9683A4B0B40002B0DD042
:100C5C007B681B681969384B0B40002B08D17B68EB
:100C6C001B68D968344B0B40002B01D1542300E096
:100C7C00FC2302FB03F33B6121E03B68B3F1FF3F34
:100C8C001AD03B68002B07D0FFF772FD02467B6938
:100C9C00D31A3A689A420FD2FB683A699A420BD936
:100CAC007B689B6A43F004027B689A627B68002233
:100CBC0083F82420032330E0FB680133FB60FB68DE
:100CCC003A699A42D9D87B681B686FF012021A6095
:100CDC007B689B6A43F400727B689A627B681B6832
:100CEC009B6803F46023B3F5602F15D17B681B7BE5
:100CFC00002B11D17B689B6A23F480727B689A620B
:100D0C007B689B6A03F48053002B05D17B689B6A3C
:100D1C0043F001027B689A62002318461C37BD46DB
:100D2C0090BD00BF00000020244992242449920069
:100D3C0092244912922449004992240080B483B031
:100D4C0000AF78607B681B68DB6C18460C37BD46BF
:100D5C0080BC704780B485B000AF786039600023E8
:100D6C00FB730023BB607B6893F82430012B01D10B
:100D7C000223DCE07B68012283F824203B685B685B
:100D8C00062B1CD87B681B68596B3B685A6813464A
:100D9C009B001344053B1F2202FA03F3DB4319406B
:100DAC003B6818683B685A6813469B001344053B24
:100DBC0000FA03F27B681B680A435A633CE03B6809
:100DCC005B680C2B1CD87B681B68196B3B685A68DA
:100DDC0013469B001344233B1F2202FA03F3DB430D
:100DEC0019403B6818683B685A6813469B001344CB
:100DFC00233B00FA03F27B681B680A431A631BE06F
:100E0C007B681B68D96A3B685A6813469B0013447D
:100E1C00413B1F2202FA03F3DB4319403B6818687D
:100E2C003B685A6813469B001344413B00FA03F29B
:100E3C007B681B680A43DA623B681B68092B1CD968
:100E4C007B681B68D9683B681A6813465B001344BF
:100E5C001E3B072202FA03F3DB4319403B689868F8
:100E6C003B681A6813465B0013441E3B00FA03F2FE
:100E7C007B681B680A43DA6019E07B681B68196998
:100E8C003B681A6813465B001344072202FA03F30B
:100E9C00DB4319403B6898683B681A6813465B0053
:100EAC00134400FA03F27B681B680A431A613B681F
:100EBC001B68102B03D03B681B68112B32D17B684D
:100ECC001B681D4A934225D17B681B689B6803F401
:100EDC000003002B26D17B681B689A687B681B6813
:100EEC0042F400029A603B681B68102B1AD1134B1A
:100EFC001B68134AA2FB03239A0C13469B00134452
:100F0C005B00BB6002E0BB68013BBB60BB68002BB5
:100F1C00F9D107E07B689B6A43F020027B689A62F8
:100F2C000123FB737B68002283F82420FB7B18468B
:100F3C001437BD4680BC70470024014000000020DF
:100F4C0083DE1B4380B584B000AF78600023FB6068
:100F5C000023BB607B681B689B6803F00103012BBB
:100F6C0040D07B681B689A687B681B6842F0010262
:100F7C009A601F4B1B681F4AA2FB03239B0CBB6090
:100F8C0002E0BB68013BBB60BB68002BF9D1FFF7EB
:100F9C00EFFBF8601FE0FFF7EBFB0246FB68D31A90
:100FAC00022B18D97B681B689B6803F00103012B8B
:100FBC0011D07B689B6A43F010027B689A627B6855
:100FCC00DB6A43F001027B68DA627B68002283F8FB
:100FDC002420012307E07B681B689B6803F0010356
:100FEC00012BD8D1002318461037BD4680BD00BF59
:100FFC000000002083DE1B4380B584B000AF786016
:10100C000023FB607B681B689B6803F00103012BCA
:10101C002ED17B681B689A687B681B6822F00102E2
:10102C009A60FFF7A5FBF8601BE0FFF7A1FB0246F7
:10103C00FB68D31A022B14D97B681B689B6803F0DE
:10104C000103012B0DD17B689B6A43F010027B6876
:10105C009A627B68DB6A43F001027B68DA620123E7
:10106C0007E07B681B689B6803F00103012BDCD055
:10107C00002318461037BD4680BD000090B587B0E0
:10108C0000AF78600023FB750023FB607B6893F84E
:10109C002430012B01D1022397E07B68012283F8D5
:1010AC0024207868FFF7A8FF0346FB757868FFF7E4
:1010BC0049FF0346FB75FB7D002B40F081807B686C
:1010CC009B6A23F4885323F0020343F002027B68EB
:1010DC009A62404B1C68022000F0ACFF0346B4FB44
:1010EC00F3F35B00FB6002E0FB68013BFB60FB6819
:1010FC00002BF9D17B681B689A687B681B6842F0EF
:10110C0008029A60FFF734FB38611BE0FFF730FBF5
:10111C0002463B69D31A0A2B14D97B681B689B685F
:10112C0003F00803002B0DD07B689B6A23F012039D
:10113C0043F010027B689A627B68002283F82420BB
:10114C00012342E07B681B689B6803F00803002BBB
:10115C00DCD17B681B689A687B681B6842F00402D0
:10116C009A60FFF705FB38611BE0FFF701FB0246B5
:10117C003B69D31A0A2B14D97B681B689B6803F054
:10118C000403002B0DD07B689B6A23F0120343F001
:10119C0010027B689A627B68002283F8242001236A
:1011AC0013E07B681B689B6803F00403002BDCD105
:1011BC007B689B6A23F0030343F001027B689A620D
:1011CC007B68002283F82420FB7D18461C37BD4623
:1011DC0090BD00BF0000002080B485B000AF7860E7
:1011EC007B6803F00703FB600C4BDB68BB60BA68E1
:1011FC004FF6FF031340BB60FB681A02BB68134336
:10120C0043F0BF6343F40033BB60044ABB68D36054
:10121C0000BF1437BD4680BC704700BF00ED00E036
:10122C0080B400AF044BDB681B0A03F007031846BD
:10123C00BD4680BC704700BF00ED00E080B483B0B9
:10124C0000AF03463960FB7197F90730002B0ADBBE
:10125C003B68DAB20C4997F907301201D2B20B4451
:10126C0083F800230AE03B68DAB20849FB7903F003
:10127C000F03043B1201D2B20B441A7600BF0C3799
:10128C00BD4680BC704700BF00E100E000ED00E00F
:10129C0080B489B000AFF860B9607A60FB6803F085
:1012AC000703FB61FB69C3F10703042B28BF04236D
:1012BC00BB61FB690433062B02D9FB69033B00E0DD
:1012CC0000237B614FF0FF32BB6902FA03F3DA4370
:1012DC00BB681A407B699A404FF0FF317B6901FA79
:1012EC0003F3D9437B680B40134318462437BD46A0
:1012FC0080BC704780B582B000AF78607B68013BE2
:10130C00B3F1807F01D301230FE00A4A7B68013BD4
:10131C0053600F214FF0FF30FFF790FF054B002279
:10132C009A60044B07221A60002318460837BD4602
:10133C0080BD00BF10E000E080B582B000AF7860E7
:10134C007868FFF749FF00BF0837BD4680BD80B500
:10135C0086B000AF0346B9607A60FB7300237B61F3
:10136C00FFF75EFF78617A68B9687869FFF790FFDC
:10137C00024697F90F3011461846FFF75FFF00BF82
:10138C001837BD4680BD80B582B000AF78607868F4
:10139C00FFF7B0FF034618460837BD4680BD000076
:1013AC0080B48BB000AF7860396000237B6200237F
:1013BC003B6269E101227B6A02FA03F3FB613B6841
:1013CC001B68FA691340BB61BA69FB699A4240F029
:1013DC0058813B685B689A4A93425ED0984A934224
:1013EC0075D8984A934258D0964A93426FD8964AE9
:1013FC00934252D0944A934269D8944A93424CD027
:10140C00924A934263D8924A934246D0904A93426E
:10141C005DD8122B2AD8122B59D801A252F823F0DE
:10142C00A71400088114000893140008D5140008B0
:10143C00DB140008DB140008DB140008DB140008C4
:10144C00DB140008DB140008DB140008DB140008B4
:10145C00DB140008DB140008DB140008DB140008A4
:10146C00DB140008891400089D140008794A934283
:10147C0013D02CE03B68DB683B6229E03B68DB68FF
:10148C0004333B6224E03B68DB6808333B621FE0BB
:10149C003B68DB680C333B621AE03B689B68002BB3
:1014AC0002D104233B6213E03B689B68012B05D1FE
:1014BC0008233B627B68FA691A6109E008233B62E6
:1014CC007B68FA695A6103E000233B6200E000BFCD
:1014DC00BB69FF2B01D87B6801E07B6804337B611F
:1014EC00BB69FF2B02D87B6A9B0002E07B6A083B3E
:1014FC009B003B617B691A680F213B6901FA03F37E
:10150C00DB431A40396A3B6901FA03F31A437B69DE
:10151C001A603B685B6803F08053002B00F0B180CD
:10152C004D4B9B694C4A43F0010393614A4B9B69B9
:10153C0003F00103BB60BB68484A7B6A9B0802331B
:10154C0052F82330FB607B6A03F003039B000F22ED
:10155C0002FA03F3DB43FA681340FB607B68404AF2
:10156C00934213D07B683F4A93420DD07B683E4A2E
:10157C00934207D07B683D4A934201D1032306E096
:10158C00042304E0022302E0012300E000237A6A32
:10159C0002F0030292009340FA681343FB602F4958
:1015AC007B6A9B080233FA6841F823203B685B682E
:1015BC0003F48013002B06D02D4B9A682C49BB6981
:1015CC0013438B6006E02A4B9A68BB69DB432849BE
:1015DC0013408B603B685B6803F40013002B06D050
:1015EC00234BDA682249BB691343CB6006E0204BDE
:1015FC00DA68BB69DB431E491340CB603B685B6810
:10160C0003F40033002B06D0194B5A681849BB69F8
:10161C0013434B6006E0164B5A68BB69DB43144915
:10162C0013404B603B685B6803F48033002B21D084
:10163C000F4B1A680E49BB6913430B6021E000BFC6
:10164C0000003210000031100000221000002110A8
:10165C0000001210000011100010024000000140A8
:10166C0000080140000C0140001001400014014032
:10167C00000401400B4B1A68BB69DB43094913405A
:10168C000B607B6A01337B623B681A687B6A22FAC7
:10169C0003F3002B7FF48EAE00BF00BF2C37BD468A
:1016AC0080BC70470004014080B586B000AF786004
:1016BC007B68002B01D1012372E27B681B6803F06D
:1016CC000103002B00F08780924B5B6803F00C0346
:1016DC00042B0CD08F4B5B6803F00C03082B12D13E
:1016EC008C4B5B6803F48033B3F5803F0BD1894B93
:1016FC001B6803F40033002B6CD07B685B68002BF9
:10170C0068D101234CE27B685B68B3F5803F06D15E
:10171C00804B1B687F4A43F4803313602EE07B6858
:10172C005B68002B0CD17B4B1B687A4A23F480330B
:10173C001360784B1B68774A23F4802313601DE0F9
:10174C007B685B68B3F5A02F0CD1724B1B68714A98
:10175C0043F4802313606F4B1B686E4A43F4803351
:10176C0013600BE06B4B1B686A4A23F480331360E5
:10177C00684B1B68674A23F4802313607B685B68A3
:10178C00002B13D0FEF7F4FF386108E0FEF7F0FFF2
:10179C0002463B69D31A642B01D9032300E25D4B4B
:1017AC001B6803F40033002BF0D014E0FEF7E0FFCD
:1017BC00386108E0FEF7DCFF02463B69D31A642B64
:1017CC0001D90323ECE1534B1B6803F40033002BCA
:1017DC00F0D100E000BF7B681B6803F00203002B14
:1017EC0063D04C4B5B6803F00C03002B0BD0494BC4
:1017FC005B6803F00C03082B1CD1464B5B6803F4AD
:10180C008033002B16D1434B1B6803F00203002BD3
:10181C0005D07B681B69012B01D00123C0E13D4B36
:10182C001B6823F0F8027B685B69DB0039491343C2
:10183C000B603AE07B681B69002B20D0364B0122F1
:10184C001A60FEF795FF386108E0FEF791FF02463B
:10185C003B69D31A022B01D90323A1E12D4B1B6841
:10186C0003F00203002BF0D02A4B1B6823F0F80284
:10187C007B685B69DB00274913430B6015E0264B43
:10188C0000221A60FEF774FF386108E0FEF770FF63
:10189C0002463B69D31A022B01D9032380E11D4B6D
:1018AC001B6803F00203002BF0D17B681B6803F06C
:1018BC000803002B3AD07B689B69002B19D0174B7F
:1018CC0001221A60FEF754FF386108E0FEF750FF62
:1018DC0002463B69D31A022B01D9032360E10D4B5D
:1018EC005B6A03F00203002BF0D0012000F0CEFA6B
:1018FC001CE00A4B00221A60FEF73AFF38610FE039
:10190C00FEF736FF02463B69D31A022B08D9032394
:10191C0046E100BF001002400000424280044242F7
:10192C00924B5B6A03F00203002BE9D17B681B68C6
:10193C0003F00403002B00F0A6800023FB758B4BF7
:10194C00DB6903F08053002B0DD1884BDB69874A90
:10195C0043F08053D361854BDB6903F08053BB604C
:10196C00BB680123FB75824B1B6803F48073002B4F
:10197C0018D17F4B1B687E4A43F480731360FEF7CB
:10198C00F7FE386108E0FEF7F3FE02463B69D31A16
:10199C00642B01D9032303E1754B1B6803F480739B
:1019AC00002BF0D07B68DB68012B06D16F4B1B6AD8
:1019BC006E4A43F0010313622DE07B68DB68002B59
:1019CC000CD16A4B1B6A694A23F001031362674B03
:1019DC001B6A664A23F0040313621CE07B68DB6815
:1019EC00052B0CD1614B1B6A604A43F00403136254
:1019FC005E4B1B6A5D4A43F0010313620BE05B4BC9
:101A0C001B6A5A4A23F001031362584B1B6A574A4C
:101A1C0023F0040313627B68DB68002B15D0FEF700
:101A2C00A7FE38610AE0FEF7A3FE02463B69D31A13
:101A3C0041F28832934201D90323B1E04B4B1B6A2C
:101A4C0003F00203002BEED014E0FEF791FE386198
:101A5C000AE0FEF78DFE02463B69D31A41F288324A
:101A6C00934201D903239BE0404B1B6A03F0020312
:101A7C00002BEED1FB7D012B05D13C4BDB693B4AA6
:101A8C0023F08053D3617B68DB69002B00F08780E7
:101A9C00364B5B6803F00C03082B61D07B68DB6969
:101AAC00022B46D1334B00221A60FEF761FE3861DF
:101ABC0008E0FEF75DFE02463B69D31A022B01D902
:101ACC0003236DE0294B1B6803F00073002BF0D14E
:101ADC007B681B6AB3F5803F08D1244B5B6823F409
:101AEC0000327B689B68214913434B601F4B5B683A
:101AFC0023F474127B68196A7B685B6A0B431B497D
:101B0C0013434B601B4B01221A60FEF731FE386108
:101B1C0008E0FEF72DFE02463B69D31A022B01D9D1
:101B2C0003233DE0114B1B6803F00073002BF0D036
:101B3C0035E0104B00221A60FEF71AFE386108E0FF
:101B4C00FEF716FE02463B69D31A022B01D903237A
:101B5C0026E0064B1B6803F00073002BF0D11EE04F
:101B6C007B68DB69012B07D1012319E000100240CF
:101B7C0000700040600042420B4B5B68FB60FB68EE
:101B8C0003F480327B681B6A9A4206D1FB6803F42B
:101B9C0070127B685B6A9A4201D0012300E000233B
:101BAC0018461837BD4680BD0010024080B584B081
:101BBC0000AF786039607B68002B01D10123D0E045
:101BCC006A4B1B6803F007033A689A4210D9674BBB
:101BDC001B6823F0070265493B6813430B60634B9A
:101BEC001B6803F007033A689A4201D00123B8E05E
:101BFC007B681B6803F00203002B20D07B681B68FA
:101C0C0003F00403002B05D0594B5B68584A43F48E
:101C1C00E06353607B681B6803F00803002B05D05E
:101C2C00534B5B68524A43F460535360504B5B68B0
:101C3C0023F0F0027B689B684D4913434B607B6833
:101C4C001B6803F00103002B40D07B685B68012B01
:101C5C0007D1474B1B6803F40033002B15D101232C
:101C6C007FE07B685B68022B07D1414B1B6803F05C
:101C7C000073002B09D1012373E03D4B1B6803F06B
:101C8C000203002B01D101236BE0394B5B6823F07D
:101C9C0003027B685B68364913434B60FEF768FDB3
:101CAC00F8600AE0FEF764FD0246FB68D31A41F2C5
:101CBC008832934201D9032353E02D4B5B6803F028
:101CCC000C027B685B689B009A42EBD1274B1B682C
:101CDC0003F007033A689A4210D2244B1B6823F096
:101CEC00070222493B6813430B60204B1B6803F02F
:101CFC0007033A689A4201D0012332E07B681B68E3
:101D0C0003F00403002B08D0194B5B6823F4E0624A
:101D1C007B68DB68164913434B607B681B6803F0D8
:101D2C000803002B09D0124B5B6823F460527B68CC
:101D3C001B69DB000E4913434B6000F021F802468F
:101D4C000B4B5B681B0903F00F030A49CB5C22FAAF
:101D5C0003F3094A1360094B1B681846FEF7C6FCCF
:101D6C00002318461037BD4680BD00BF002002403E
:101D7C0000100240A42F00080000002004000020E6
:101D8C0080B487B000AF0023FB600023BB6000234E
:101D9C007B6100237B6000233B611E4B5B68FB6017
:101DAC00FB6803F00C03042B02D0082B03D027E0B4
:101DBC00194B3B6127E0FB689B0C03F00F03174AA0
:101DCC00D35C7B60FB6803F48033002B10D0114B89
:101DDC005B685B0C03F00103114AD35CBB607B684E
:101DEC000D4A03FB02F2BB68B2FBF3F37B6104E028
:101DFC007B680C4A02FB03F37B617B693B6102E06D
:101E0C00054B3B6100BF3B6918461C37BD4680BC87
:101E1C00704700BF0010024000127A00BC2F00086F
:101E2C00CC2F000800093D0080B400AF024B1B68AA
:101E3C001846BD4680BC70470000002080B500AF3E
:101E4C00FFF7F2FF0246054B5B681B0A03F0070322
:101E5C000349CB5C22FA03F3184680BD0010024004
:101E6C00B42F000880B500AFFFF7DEFF0246054B2C
:101E7C005B68DB0A03F007030349CB5C22FA03F32C
:101E8C00184680BD00100240B42F000880B485B005
:101E9C0000AF78600A4B1B680A4AA2FB03235B0A5B
:101EAC007A6802FB03F3FB6000BFFB685A1EFA6002
:101EBC00002BF9D100BF00BF1437BD4680BC704762
:101ECC0000000020D34D621080B586B000AF786062
:101EDC0000233B610023FB607B681B6803F001035C
:101EEC00002B7DD00023FB754F4BDB6903F0805337
:101EFC00002B0DD14C4BDB694B4A43F08053D36123
:101F0C00494BDB6903F08053BB60BB680123FB7555
:101F1C00464B1B6803F48073002B18D1434B1B6892
:101F2C00424A43F480731360FEF722FC386108E0E8
:101F3C00FEF71EFC02463B69D31A642B01D903231E
:101F4C006DE03A4B1B6803F48073002BF0D0364BDA
:101F5C001B6A03F44073FB60FB68002B2ED07B687C
:101F6C005B6803F44073FA689A4227D02E4B1B6AC5
:101F7C0023F44073FB602E4B01221A602C4B002281
:101F8C001A60294AFB681362FB6803F00103002BFB
:101F9C0014D0FEF7EDFB38610AE0FEF7E9FB0246D0
:101FAC003B69D31A41F28832934201D9032336E0BC
:101FBC001D4B1B6A03F00203002BEED01A4B1B6A5D
:101FCC0023F440727B685B68174913430B62FB7DFB
:101FDC00012B05D1144BDB69134A23F08053D361D9
:101FEC007B681B6803F00203002B08D00E4B5B6868
:101FFC0023F440427B689B680B4913434B607B681E
:10200C001B6803F01003002B08D0074B5B6823F40C
:10201C0080027B68DB68044913434B60002318463D
:10202C001837BD4680BD00BF001002400070004054
:10203C004004424280B588B000AF786000237B61D9
:10204C000023FB6100233B610023FB600023BB6189
:10205C007B68102B0AD07B68102B00F28A807B687F
:10206C00012B45D07B68022B75D082E0464B5B6818
:10207C00FB60454B1B6803F08073002B7BD0FB6827
:10208C009B0C03F00F03414AD35C3B61FB6803F4E8
:10209C008033002B15D03C4B5B685B0C03F00103C9
:1020AC003B4AD35C7B61FB6803F48033002B0DD07F
:1020BC00384A7B69B2FBF3F23B6902FB03F3FB6129
:1020CC0004E03B69344A02FB03F3FB612E4B5B6873
:1020DC0003F48003B3F5800F02D1FB69BB614AE0C6
:1020EC00FB695B002D4AA2FB03235B08BB6142E04A
:1020FC00254B1B6AFB60FB6803F44073B3F5807FD0
:10210C0008D1FB6803F00203002B03D04FF400430B
:10211C00BB611FE0FB6803F44073B3F5007F09D18A
:10212C00194B5B6A03F00203002B03D049F64043C2
:10213C00BB610FE0FB6803F44073B3F5407F1CD127
:10214C00114B1B6803F40033002B16D04FF22443C1
:10215C00BB6112E011E0FFF785FE02460A4B5B689B
:10216C009B0B03F0030301335B00B2FBF3F3BB6186
:10217C0004E000BF02E000BF00E000BFBB691846EE
:10218C002037BD4680BD00BF00100240D02F000894
:10219C00E02F000800127A0000093D00ABAAAAAAA1
:1021AC0080B582B000AF78607B68002B01D1012331
:1021BC0042E07B6893F84130DBB2002B06D17B68A0
:1021CC00002283F840207868FEF7A0F97B6824226F
:1021DC0083F841207B681B68DA687B681B6822F4F3
:1021EC000052DA60786800F071F97B681B681A6934
:1021FC007B681B6822F490421A617B681B685A69E1
:10220C007B681B6822F02A025A617B681B68DA68BB
:10221C007B681B6842F40052DA607B6800225A64C7
:10222C007B68202283F841207B68202283F842209F
:10223C007B6800225A63002318460837BD4680BDD0
:10224C0080B58AB002AFF860B9603B601346FB8082
:10225C0000237B61FB6893F84130DBB2202B75D1F6
:10226C00BB68002B02D0FB88002B01D101236EE050
:10227C00FB6800225A64FB68212283F84120FEF798
:10228C0077FA7861FB68FA889A84FB68FA88DA84B2
:10229C00FB689B68B3F5805F08D1FB681B69002B5A
:1022AC0004D10023FB61BB68BB6103E0BB68FB612D
:1022BC000023BB612EE03B6800937B6900228021E8
:1022CC00F86800F048F80346002B05D0FB68202284
:1022DC0083F8412003233AE0FB69002B0BD1BB6947
:1022EC001B881A46FB681B68C2F308025A60BB695C
:1022FC000233BB6107E0FB691A78FB681B685A6004
:10230C00FB690133FB61FB68DB8C9BB2013B9AB22E
:10231C00FB68DA84FB68DB8C9BB2002BCBD13B686F
:10232C0000937B6900224021F86800F014F8034602
:10233C00002B05D0FB68202283F84120032306E004
:10234C00FB68202283F84120002300E0022318467A
:10235C002037BD4680BD80B586B000AFF860B9604F
:10236C003B601346FB713BE03B6AB3F1FF3F37D058
:10237C00FEF7FEF902463B68D31A3A6A9A4202D338
:10238C003B6A002B01D103233AE0FB681B68DB6836
:10239C0003F00403002B23D0BB68802B20D0BB6838
:1023AC00402B1DD0FB681B681B6803F00803082B2F
:1023BC0016D100237B61FB681B681B687B61FB6883
:1023CC001B685B687B617B69F86800F01DF8FB6833
:1023DC0008225A64FB68002283F8402001230FE096
:1023EC00FB681B681A68BB681340BA689A420CBF3A
:1023FC0001230023DBB21A46FB799A42B4D00023A6
:10240C0018461837BD4680BD80B495B000AF7860D3
:10241C007B681B680C337B637B6B53E8003F3B632F
:10242C003B6B23F49073FB647B681B680C33FA6C76
:10243C003A64FB63F96B3A6C41E80023BB63BB6BFA
:10244C00002BE5D17B681B6814333B623B6A53E875
:10245C00003FFB61FB6923F00103BB647B681B68D5
:10246C001433BA6CFA62BB62B96AFA6A41E80023A7
:10247C007B627B6A002BE5D17B681B6B012B19D12E
:10248C007B681B680C33FB60FB6853E8003FBB6048
:10249C00BB6823F010037B647B681B680C337A6C7D
:1024AC00BA617B617969BA6941E800233B613B6998
:1024BC00002BE5D17B68202283F842207B68002228
:1024CC001A6300BF5437BD4680BC704780B584B0DA
:1024DC0000AF78607B681B681B6923F440517B68F4
:1024EC00DA687B681B680A431A617B689A687B68A8
:1024FC001B691A437B685B691343BB607B681B6871
:10250C00DB6823F4B05323F00C037A681268B968C3
:10251C000B43D3607B681B685B6923F440717B6859
:10252C009A697B681B680A435A617B681B682C4A52
:10253C00934203D1FFF796FCF86002E0FFF77EFCB4
:10254C00F860FA6813469B0013449A001A447B689F
:10255C005B689B00B2FBF3F3224AA2FB03235B09EB
:10256C001901FA6813469B0013449A001A447B68BD
:10257C005B689B00B2FBF3F21A4BA3FB02035B09F3
:10258C00642000FB03F3D31A1B013233154AA2FB60
:10259C0003235B0903F0F0031944FA6813469B000C
:1025AC0013449A001A447B685B689B00B2FBF3F2FD
:1025BC000C4BA3FB02035B09642000FB03F3D31A4F
:1025CC001B013233074AA2FB03235B0903F00F0202
:1025DC007B681B680A449A6000BF1037BD4680BDFB
:1025EC00003801401F85EB510EB46FF0004110B55F
:1025FC0000249DB01FAB02900690079104910948EE
:10260C00094953F8042B0591006802A901931B9406
:10261C0000F092F9029B1C701DB0BDE8104003B095
:10262C00704700BF0C0000200802FFFF0346024465
:10263C00934200D1704703F8011BF9E7014B18686E
:10264C00704700BF0C00002070B500260C4D0D4CDF
:10265C00641BA410A64209D100F076FC00260A4D9A
:10266C000A4C641BA410A64205D170BD55F8043B5E
:10267C0098470136EEE755F8043B98470136F2E7E8
:10268C0020300008203000082030000824300008DA
:10269C007047704738B50546002940D051F8043CC6
:1026AC000C1F002BB8BFE41800F0DEF81C4A1368AE
:1026BC0033B9636014602846BDE8384000F0DAB8DE
:1026CC00A34208D9206821188B4201BF19685B68A6
:1026DC0009182160EDE71A465B680BB1A342FAD9E1
:1026EC0011685018A0420BD1206801445018834245
:1026FC001160E0D118685B68084410605360DAE739
:10270C0002D90C232B60D6E7206821188B4201BF1D
:10271C0019685B680918216063605460CBE738BDA9
:10272C00B002002070B50F4E0C463168054611B949
:10273C0000F0A8FB30602146284600F0A3FB431CA8
:10274C0003D14FF0FF34204670BDC41C24F00304A9
:10275C00A042F8D0211A284600F094FB0130F2D1A7
:10276C00EFE700BFAC0200202DE9F843CD1C25F0AB
:10277C00030508350C2D38BF0C25002D064601DB52
:10278C00A94204D90C2333600020BDE8F883DFF89C
:10279C00D48000F069F8D8F800301C4644BB2946B8
:1027AC003046FFF7BFFF431C044658D1D8F8004011
:1027BC002746002F43D1002C4BD023683946304696
:1027CC0004EB030900F05EFB814542D121683046E1
:1027DC006D1A2946FFF7A6FF01303AD023682B4427
:1027EC002360D8F800305A6862BBC8F800700FE05C
:1027FC002268521B20D40B2A17D96119A3422560D9
:10280C0018BF5960636808BFC8F8001062514B606C
:10281C00304600F02FF804F10B00231D20F00700C8
:10282C00C21A1CBF1B1AA350AFE76268A3420CBFAD
:10283C00C8F800205A60EBE723466468AEE73C46D4
:10284C007F68B6E71A465B68A342FBD1002353604E
:10285C00DEE70C233046336000F00CF894E705609B
:10286C00D6E700BFB00200200148FFF711BF00BF40
:10287C00A80200200148FFF70CBF00BFA8020020EF
:10288C002DE9F0471F468E688246BE420C469046A4
:10289C000B682DD8B1F90C2012F4906F26D0656915
:1028AC00096905EB4505A3EB010905EBD5757B1C07
:1028BC004B446D109D4238BF1D46530527D5294604
:1028CC00FFF752FF064660B34A46216900F0F8FA5A
:1028DC00A38923F4906343F08003A38126614E44C3
:1028EC0026603E466561A5EB0905A560BE4200D990
:1028FC003E4632464146206800F0AAFA0020A36802
:10290C009B1BA360236833442360BDE8F0872A46F1
:10291C0000F0E4FA06460028E0D150462169FFF7A2
:10292C00B9FE0C23CAF80030A3894FF0FF3043F0F6
:10293C004003A381E9E700002DE9F04F98468B890D
:10294C0007461B060D4614469DB010D50B6973B98E
:10295C004021FFF709FF2860286130B90C233B6048
:10296C004FF0FF301DB0BDE8F08F40236B610023AA
:10297C00099320238DF8293030234FF00109CDF82D
:10298C000C80DFF898818DF82A3023469A4613F88C
:10299C00012B0AB1252AF9D1BAEB040B0BD05B46FB
:1029AC00224629463846FFF76BFF013000F0A7801E
:1029BC00099A5A4409929AF80030002B00F09F8033
:1029CC0000234FF0FF32CDE905230AF1010A0493ED
:1029DC0007938DF853301A935446052214F8011BB3
:1029EC004E4800F05FFA049AD8B9D00644BF2023B1
:1029FC008DF85330110744BF2B238DF853309AF8C0
:102A0C0000302A2B15D0544600204FF00A0C079AA0
:102A1C00214611F8013B303B092B4BD9B0B1079241
:102A2C0014E0A0EB080309FA03F31343A246049342
:102A3C00D2E7039B191D1B680391002BBBBF5B42A4
:102A4C0042F0020207930793B8BF049223782E2B0F
:102A5C000AD163782A2B32D1039B02341A1D1B68CE
:102A6C00039243EAE3730593DFF8B4A003225046C4
:102A7C00217800F017FA38B14022049BA0EB0A0031
:102A8C00824013430134049314F8011B0622254899
:102A9C008DF8281000F006FA002836D0224B1BBB0C
:102AAC00039B073323F0070308330393099B334439
:102ABC0009936AE70C4601200CFB0232A8E70023BD
:102ACC004FF00A0C194601340593204610F8012BDF
:102ADC00303A092A03D9002BC6D00591C4E7044625
:102AEC0001230CFB0121F0E703AB00932A46384687
:102AFC000E4B04A9AFF30080421C0646D6D1AB891D
:102B0C005B063FF52DAF09982CE703AB00932A46E3
:102B1C003846064B04A900F07DF8EDE7E22F0008DB
:102B2C00E82F0008EC2F0008000000008D2800089A
:102B3C002DE9F047164698468A680B69074693427A
:102B4C00B8BF1346336091F843200C46DDF8209053
:102B5C000AB1013333602368990642BF33680233EC
:102B6C003360256815F0060506D104F1190AE368EF
:102B7C0032689B1AAB422BDC94F843302268003B42
:102B8C0018BF0123920630D44146384604F1430263
:102B9C00C847013023D02368226903F00603042BB5
:102BAC0014BF002533684FF0000608BFE56804F138
:102BBC001A0408BFED1A54F8123C08BF25EAE57553
:102BCC009342C4BF9B1AED18B5421AD1002008E0FD
:102BDC000123524641463846C847013003D14FF0D5
:102BEC00FF30BDE8F0870135C1E73020E11881F8EE
:102BFC0043005A1C94F845102244023382F84310C7
:102C0C00C2E70123224641463846C8470130E6D088
:102C1C000136D9E72DE9FF470F7E9146782F804684
:102C2C000C469A460C9E01F1430207D8622F0AD833
:102C3C00002F00F0D180582F00F0B88004F142062C
:102C4C0084F842703AE0A7F16303152BF6D801A182
:102C5C0051F823F0B92C0008CD2C0008492C0008A1
:102C6C00492C0008492C0008492C0008CD2C0008E0
:102C7C00492C0008492C0008492C0008492C000854
:102C8C00CB2D0008F72C0008852D0008492C0008D6
:102C9C00492C0008ED2D0008492C0008F72C0008E1
:102CAC00492C0008492C00088D2D000833681A1D8A
:102CBC001B68326004F1420684F8423001239CE028
:102CCC0033682068191D3160060601D51D6803E0C4
:102CDC004506FBD5B3F90050002D03DA2D236D42C8
:102CEC0084F843300A23584811E0216833680806F9
:102CFC0053F8045B02D4490648BFADB26F2F336062
:102D0C0014BF0A2308235048002184F84310666836
:102D1C00002EA66005DB21682E4321F00401216002
:102D2C004BD01646B5FBF3F103FB1157C75D06F804
:102D3C00017D2F46BB420D46F4D9082B0BD12368DD
:102D4C00DF0708D5236961689942DEBF302306F896
:102D5C00013C06F1FF36921B22614B462146404650
:102D6C00CDF800A003AAFFF7E3FE01304AD14FF0E3
:102D7C00FF3004B0BDE8F087236843F020032360E4
:102D8C007827324884F84570236831681F0651F85B
:102D9C00045B02D45F0648BFADB23160D90744BFB3
:102DAC0043F0200323601DB11023ADE72648E9E76B
:102DBC00236823F020032360F6E71646BDE733684B
:102DCC002568181D616930602E061B6801D51960D5
:102DDC0002E06806FBD51980002316462361BCE788
:102DEC00336800211A1D32601E686268304600F09C
:102DFC0059F808B1801B606063682361002384F874
:102E0C004330AAE73246494640462369D047013051
:102E1C00ADD023689B0713D4E068039B9842B8BFDE
:102E2C001846A6E70123324649464046D0470130B2
:102E3C009DD00135E36803995B1AAB42F2DCEBE7FA
:102E4C00002504F11906F5E7F32F000804300008FB
:102E5C00884210B501EB020402D98442234607D8FC
:102E6C00431EA14208D011F8012B03F8012FF8E7FB
:102E7C00014602448A4200D110BD13F8014D02F8FC
:102E8C00014DF7E738B50023054D044608462B6085
:102E9C00FDF7B4FB431C02D12B6803B1236038BD92
:102EAC00A4020020034610B5C9B20244934218464E
:102EBC0001D1002003E0047801338C42F6D110BD1F
:102ECC000A44914200F1FF3300D1704710B511F85C
:102EDC00014B914203F8014FF9D110BD2DE9F0419E
:102EEC00074614460D4621B91146BDE8F041FFF7DF
:102EFC003BBC2AB9FFF7CEFB25462846BDE8F0813E
:102F0C0000F01AF88442064602D8B4EB500FF4D8FD
:102F1C0021463846FFF728FC804608B94546ECE7C1
:102F2C00B4422246294628BF3246FFF7C9FF29463C
:102F3C003846FFF7AFFBF1E751F8043C181F002BA4
:102F4C00BCBF0B58C0187047F8B500BFF8BC08BC24
:102F5C009E467047F8B500BFF8BC08BC9E4670474B
:102F6C00456E67696E652054656D70203D20256C3B
:102F7C0075207C205468726F74746C65203D20251C
:102F8C006C750D0A0000000053544D33322053541D
:102F9C0041525445440D0A0000000000000000009E
:102FAC0001020304060708090000000001020304E3
:102FBC0002030405060708090A0B0C0D0E0F10106E
:102FCC000102000002030405060708090A0B0C0D98
:102FDC000E0F10100102232D302B2000686C4C00BA
:102FEC0065666745464700303132333435363738FD
:102FFC00394142434445460030313233343536375B
:0C300C00383961626364656600000000F2
:0830180034D1FF7F010000002C
:043020003101000872
:043024000D01000892
:1030280000127A00100000000100000010000020CB
:10303800000000006C010020D40100203C020020A8
:103048000000000000000000000000000000000078
:103058000000000000000000000000000000000068
:103068000000000000000000000000000000000058
:0C3078000000000000000000000000004C
:040000050800068168
:00000001FF
